{
  "_format": "hh-sol-artifact-1",
  "contractName": "RealTok",
  "sourceName": "contracts/RealTok.sol",
  "abi": [
    {
      "inputs": [
        {
          "internalType": "address",
          "name": "_tokenContractAddress",
          "type": "address"
        }
      ],
      "stateMutability": "nonpayable",
      "type": "constructor"
    },
    {
      "inputs": [
        {
          "internalType": "address",
          "name": "owner",
          "type": "address"
        }
      ],
      "name": "OwnableInvalidOwner",
      "type": "error"
    },
    {
      "inputs": [
        {
          "internalType": "address",
          "name": "account",
          "type": "address"
        }
      ],
      "name": "OwnableUnauthorizedAccount",
      "type": "error"
    },
    {
      "anonymous": false,
      "inputs": [
        {
          "indexed": true,
          "internalType": "address",
          "name": "previousOwner",
          "type": "address"
        },
        {
          "indexed": true,
          "internalType": "address",
          "name": "newOwner",
          "type": "address"
        }
      ],
      "name": "OwnershipTransferred",
      "type": "event"
    },
    {
      "anonymous": false,
      "inputs": [
        {
          "indexed": true,
          "internalType": "address",
          "name": "societyOwner",
          "type": "address"
        },
        {
          "indexed": false,
          "internalType": "uint256",
          "name": "plotId",
          "type": "uint256"
        },
        {
          "indexed": false,
          "internalType": "uint256",
          "name": "societyId",
          "type": "uint256"
        },
        {
          "indexed": false,
          "internalType": "string",
          "name": "size",
          "type": "string"
        },
        {
          "indexed": false,
          "internalType": "string",
          "name": "location",
          "type": "string"
        },
        {
          "indexed": false,
          "internalType": "bool",
          "name": "electricityAvailable",
          "type": "bool"
        },
        {
          "indexed": false,
          "internalType": "string",
          "name": "ownerName",
          "type": "string"
        },
        {
          "indexed": false,
          "internalType": "uint256",
          "name": "timestamp",
          "type": "uint256"
        }
      ],
      "name": "PlotCreated",
      "type": "event"
    },
    {
      "anonymous": false,
      "inputs": [
        {
          "indexed": true,
          "internalType": "address",
          "name": "owner",
          "type": "address"
        },
        {
          "indexed": false,
          "internalType": "address",
          "name": "newTokenContractAddress",
          "type": "address"
        },
        {
          "indexed": false,
          "internalType": "uint256",
          "name": "timestamp",
          "type": "uint256"
        }
      ],
      "name": "TokenContractAddressUpdated",
      "type": "event"
    },
    {
      "inputs": [
        {
          "internalType": "string",
          "name": "size",
          "type": "string"
        },
        {
          "internalType": "string",
          "name": "location",
          "type": "string"
        },
        {
          "internalType": "bool",
          "name": "electricityAvailable",
          "type": "bool"
        },
        {
          "internalType": "string",
          "name": "ownerName",
          "type": "string"
        },
        {
          "internalType": "uint256",
          "name": "societyId",
          "type": "uint256"
        },
        {
          "internalType": "address",
          "name": "_plotowner",
          "type": "address"
        }
      ],
      "name": "addPlot",
      "outputs": [],
      "stateMutability": "nonpayable",
      "type": "function"
    },
    {
      "inputs": [],
      "name": "getAllPlots",
      "outputs": [
        {
          "components": [
            {
              "internalType": "uint256",
              "name": "plotId",
              "type": "uint256"
            },
            {
              "internalType": "string",
              "name": "size",
              "type": "string"
            },
            {
              "internalType": "string",
              "name": "location",
              "type": "string"
            },
            {
              "internalType": "bool",
              "name": "electricityAvailable",
              "type": "bool"
            },
            {
              "internalType": "string",
              "name": "ownerName",
              "type": "string"
            },
            {
              "internalType": "uint256",
              "name": "societyId",
              "type": "uint256"
            },
            {
              "internalType": "address",
              "name": "owner",
              "type": "address"
            }
          ],
          "internalType": "struct RealTok.Plot[]",
          "name": "",
          "type": "tuple[]"
        }
      ],
      "stateMutability": "view",
      "type": "function"
    },
    {
      "inputs": [
        {
          "internalType": "uint256",
          "name": "plotId",
          "type": "uint256"
        }
      ],
      "name": "getPlotById",
      "outputs": [
        {
          "components": [
            {
              "internalType": "uint256",
              "name": "plotId",
              "type": "uint256"
            },
            {
              "internalType": "string",
              "name": "size",
              "type": "string"
            },
            {
              "internalType": "string",
              "name": "location",
              "type": "string"
            },
            {
              "internalType": "bool",
              "name": "electricityAvailable",
              "type": "bool"
            },
            {
              "internalType": "string",
              "name": "ownerName",
              "type": "string"
            },
            {
              "internalType": "uint256",
              "name": "societyId",
              "type": "uint256"
            },
            {
              "internalType": "address",
              "name": "owner",
              "type": "address"
            }
          ],
          "internalType": "struct RealTok.Plot",
          "name": "",
          "type": "tuple"
        }
      ],
      "stateMutability": "view",
      "type": "function"
    },
    {
      "inputs": [
        {
          "internalType": "uint256",
          "name": "plotId",
          "type": "uint256"
        }
      ],
      "name": "getPlotByIdVerified",
      "outputs": [
        {
          "components": [
            {
              "internalType": "uint256",
              "name": "plotId",
              "type": "uint256"
            },
            {
              "internalType": "string",
              "name": "size",
              "type": "string"
            },
            {
              "internalType": "string",
              "name": "location",
              "type": "string"
            },
            {
              "internalType": "bool",
              "name": "electricityAvailable",
              "type": "bool"
            },
            {
              "internalType": "string",
              "name": "ownerName",
              "type": "string"
            },
            {
              "internalType": "uint256",
              "name": "societyId",
              "type": "uint256"
            },
            {
              "internalType": "address",
              "name": "owner",
              "type": "address"
            }
          ],
          "internalType": "struct RealTok.Plot",
          "name": "",
          "type": "tuple"
        }
      ],
      "stateMutability": "view",
      "type": "function"
    },
    {
      "inputs": [
        {
          "internalType": "uint256",
          "name": "societyId",
          "type": "uint256"
        }
      ],
      "name": "getPlotsBySocietyId",
      "outputs": [
        {
          "components": [
            {
              "internalType": "uint256",
              "name": "plotId",
              "type": "uint256"
            },
            {
              "internalType": "string",
              "name": "size",
              "type": "string"
            },
            {
              "internalType": "string",
              "name": "location",
              "type": "string"
            },
            {
              "internalType": "bool",
              "name": "electricityAvailable",
              "type": "bool"
            },
            {
              "internalType": "string",
              "name": "ownerName",
              "type": "string"
            },
            {
              "internalType": "uint256",
              "name": "societyId",
              "type": "uint256"
            },
            {
              "internalType": "address",
              "name": "owner",
              "type": "address"
            }
          ],
          "internalType": "struct RealTok.Plot[]",
          "name": "",
          "type": "tuple[]"
        }
      ],
      "stateMutability": "view",
      "type": "function"
    },
    {
      "inputs": [
        {
          "internalType": "address",
          "name": "user",
          "type": "address"
        }
      ],
      "name": "isTokenHolder",
      "outputs": [
        {
          "internalType": "bool",
          "name": "",
          "type": "bool"
        }
      ],
      "stateMutability": "view",
      "type": "function"
    },
    {
      "inputs": [],
      "name": "owner",
      "outputs": [
        {
          "internalType": "address",
          "name": "",
          "type": "address"
        }
      ],
      "stateMutability": "view",
      "type": "function"
    },
    {
      "inputs": [],
      "name": "renounceOwnership",
      "outputs": [],
      "stateMutability": "nonpayable",
      "type": "function"
    },
    {
      "inputs": [],
      "name": "tokenContractAddress",
      "outputs": [
        {
          "internalType": "address",
          "name": "",
          "type": "address"
        }
      ],
      "stateMutability": "view",
      "type": "function"
    },
    {
      "inputs": [
        {
          "internalType": "address",
          "name": "newOwner",
          "type": "address"
        }
      ],
      "name": "transferOwnership",
      "outputs": [],
      "stateMutability": "nonpayable",
      "type": "function"
    },
    {
      "inputs": [
        {
          "internalType": "address",
          "name": "newTokenContractAddress",
          "type": "address"
        }
      ],
      "name": "updateTokenContractAddress",
      "outputs": [],
      "stateMutability": "nonpayable",
      "type": "function"
    }
  ],
  "bytecode": "0x608060405234801561001057600080fd5b506040516122773803806122778339818101604052810190610032919061022b565b33600073ffffffffffffffffffffffffffffffffffffffff168173ffffffffffffffffffffffffffffffffffffffff16036100a55760006040517f1e4fbdf700000000000000000000000000000000000000000000000000000000815260040161009c9190610267565b60405180910390fd5b6100b48161010460201b60201c565b5080600360006101000a81548173ffffffffffffffffffffffffffffffffffffffff021916908373ffffffffffffffffffffffffffffffffffffffff160217905550600160048190555050610282565b60008060009054906101000a900473ffffffffffffffffffffffffffffffffffffffff169050816000806101000a81548173ffffffffffffffffffffffffffffffffffffffff021916908373ffffffffffffffffffffffffffffffffffffffff1602179055508173ffffffffffffffffffffffffffffffffffffffff168173ffffffffffffffffffffffffffffffffffffffff167f8be0079c531659141344cd1fd0a4f28419497f9722a3daafe3b4186f6b6457e060405160405180910390a35050565b600080fd5b600073ffffffffffffffffffffffffffffffffffffffff82169050919050565b60006101f8826101cd565b9050919050565b610208816101ed565b811461021357600080fd5b50565b600081519050610225816101ff565b92915050565b600060208284031215610241576102406101c8565b5b600061024f84828501610216565b91505092915050565b610261816101ed565b82525050565b600060208201905061027c6000830184610258565b92915050565b611fe6806102916000396000f3fe608060405234801561001057600080fd5b50600436106100a95760003560e01c806382edaf941161007157806382edaf94146101645780638da5cb5b14610182578063925074ca146101a0578063dad76df9146101be578063f2fde38b146101ee578063fc75a3f71461020a576100a9565b806316ae4f46146100ae5780636205f060146100ca57806365731fe9146100fa578063715018a61461012a5780637929326414610134575b600080fd5b6100c860048036038101906100c391906113d5565b610226565b005b6100e460048036038101906100df9190611438565b6102c2565b6040516100f191906115d8565b60405180910390f35b610114600480360381019061010f91906113d5565b610532565b6040516101219190611609565b60405180910390f35b6101326105df565b005b61014e60048036038101906101499190611438565b6105f3565b60405161015b9190611790565b60405180910390f35b61016c61092b565b60405161017991906117c1565b60405180910390f35b61018a610951565b60405161019791906117c1565b60405180910390f35b6101a861097a565b6040516101b59190611790565b60405180910390f35b6101d860048036038101906101d39190611438565b610c9d565b6040516101e591906115d8565b60405180910390f35b610208600480360381019061020391906113d5565b610f4d565b005b610224600480360381019061021f919061193d565b610fd3565b005b61022e6111bb565b80600360006101000a81548173ffffffffffffffffffffffffffffffffffffffff021916908373ffffffffffffffffffffffffffffffffffffffff1602179055503373ffffffffffffffffffffffffffffffffffffffff167fa2507d06f55be5f234a42f980acd074a7e42af0b12f7e3c55ff7584b6beb4f0382426040516102b7929190611a2d565b60405180910390a250565b6102ca61130e565b6102d26111bb565b600160008381526020019081526020016000206040518060e00160405290816000820154815260200160018201805461030a90611a85565b80601f016020809104026020016040519081016040528092919081815260200182805461033690611a85565b80156103835780601f1061035857610100808354040283529160200191610383565b820191906000526020600020905b81548152906001019060200180831161036657829003601f168201915b5050505050815260200160028201805461039c90611a85565b80601f01602080910402602001604051908101604052809291908181526020018280546103c890611a85565b80156104155780601f106103ea57610100808354040283529160200191610415565b820191906000526020600020905b8154815290600101906020018083116103f857829003601f168201915b505050505081526020016003820160009054906101000a900460ff1615151515815260200160048201805461044990611a85565b80601f016020809104026020016040519081016040528092919081815260200182805461047590611a85565b80156104c25780601f10610497576101008083540402835291602001916104c2565b820191906000526020600020905b8154815290600101906020018083116104a557829003601f168201915b50505050508152602001600582015481526020016006820160009054906101000a900473ffffffffffffffffffffffffffffffffffffffff1673ffffffffffffffffffffffffffffffffffffffff1673ffffffffffffffffffffffffffffffffffffffff16815250509050919050565b600080600360009054906101000a900473ffffffffffffffffffffffffffffffffffffffff16905060008173ffffffffffffffffffffffffffffffffffffffff166370a08231856040518263ffffffff1660e01b815260040161059591906117c1565b602060405180830381865afa1580156105b2573d6000803e3d6000fd5b505050506040513d601f19601f820116820180604052508101906105d69190611acb565b11915050919050565b6105e76111bb565b6105f16000611242565b565b60606105fd6111bb565b60006002600084815260200190815260200160002090506000818054905067ffffffffffffffff811115610634576106336117e6565b5b60405190808252806020026020018201604052801561066d57816020015b61065a61130e565b8152602001906001900390816106525790505b50905060005b8280549050811015610920576001600084838154811061069657610695611af8565b5b906000526020600020015481526020019081526020016000206040518060e0016040529081600082015481526020016001820180546106d490611a85565b80601f016020809104026020016040519081016040528092919081815260200182805461070090611a85565b801561074d5780601f106107225761010080835404028352916020019161074d565b820191906000526020600020905b81548152906001019060200180831161073057829003601f168201915b5050505050815260200160028201805461076690611a85565b80601f016020809104026020016040519081016040528092919081815260200182805461079290611a85565b80156107df5780601f106107b4576101008083540402835291602001916107df565b820191906000526020600020905b8154815290600101906020018083116107c257829003601f168201915b505050505081526020016003820160009054906101000a900460ff1615151515815260200160048201805461081390611a85565b80601f016020809104026020016040519081016040528092919081815260200182805461083f90611a85565b801561088c5780601f106108615761010080835404028352916020019161088c565b820191906000526020600020905b81548152906001019060200180831161086f57829003601f168201915b50505050508152602001600582015481526020016006820160009054906101000a900473ffffffffffffffffffffffffffffffffffffffff1673ffffffffffffffffffffffffffffffffffffffff1673ffffffffffffffffffffffffffffffffffffffff168152505082828151811061090857610907611af8565b5b60200260200101819052508080600101915050610673565b508092505050919050565b600360009054906101000a900473ffffffffffffffffffffffffffffffffffffffff1681565b60008060009054906101000a900473ffffffffffffffffffffffffffffffffffffffff16905090565b60606109846111bb565b600060016004546109959190611b56565b905060008167ffffffffffffffff8111156109b3576109b26117e6565b5b6040519080825280602002602001820160405280156109ec57816020015b6109d961130e565b8152602001906001900390816109d15790505b509050600080600190505b600454811015610c9357600160008281526020019081526020016000206040518060e001604052908160008201548152602001600182018054610a3990611a85565b80601f0160208091040260200160405190810160405280929190818152602001828054610a6590611a85565b8015610ab25780601f10610a8757610100808354040283529160200191610ab2565b820191906000526020600020905b815481529060010190602001808311610a9557829003601f168201915b50505050508152602001600282018054610acb90611a85565b80601f0160208091040260200160405190810160405280929190818152602001828054610af790611a85565b8015610b445780601f10610b1957610100808354040283529160200191610b44565b820191906000526020600020905b815481529060010190602001808311610b2757829003601f168201915b505050505081526020016003820160009054906101000a900460ff16151515158152602001600482018054610b7890611a85565b80601f0160208091040260200160405190810160405280929190818152602001828054610ba490611a85565b8015610bf15780601f10610bc657610100808354040283529160200191610bf1565b820191906000526020600020905b815481529060010190602001808311610bd457829003601f168201915b50505050508152602001600582015481526020016006820160009054906101000a900473ffffffffffffffffffffffffffffffffffffffff1673ffffffffffffffffffffffffffffffffffffffff1673ffffffffffffffffffffffffffffffffffffffff1681525050838381518110610c6d57610c6c611af8565b5b60200260200101819052508180610c8390611b8a565b92505080806001019150506109f7565b5081935050505090565b610ca561130e565b610cae33610532565b610ced576040517f08c379a0000000000000000000000000000000000000000000000000000000008152600401610ce490611c55565b60405180910390fd5b600160008381526020019081526020016000206040518060e001604052908160008201548152602001600182018054610d2590611a85565b80601f0160208091040260200160405190810160405280929190818152602001828054610d5190611a85565b8015610d9e5780601f10610d7357610100808354040283529160200191610d9e565b820191906000526020600020905b815481529060010190602001808311610d8157829003601f168201915b50505050508152602001600282018054610db790611a85565b80601f0160208091040260200160405190810160405280929190818152602001828054610de390611a85565b8015610e305780601f10610e0557610100808354040283529160200191610e30565b820191906000526020600020905b815481529060010190602001808311610e1357829003601f168201915b505050505081526020016003820160009054906101000a900460ff16151515158152602001600482018054610e6490611a85565b80601f0160208091040260200160405190810160405280929190818152602001828054610e9090611a85565b8015610edd5780601f10610eb257610100808354040283529160200191610edd565b820191906000526020600020905b815481529060010190602001808311610ec057829003601f168201915b50505050508152602001600582015481526020016006820160009054906101000a900473ffffffffffffffffffffffffffffffffffffffff1673ffffffffffffffffffffffffffffffffffffffff1673ffffffffffffffffffffffffffffffffffffffff16815250509050919050565b610f556111bb565b600073ffffffffffffffffffffffffffffffffffffffff168173ffffffffffffffffffffffffffffffffffffffff1603610fc75760006040517f1e4fbdf7000000000000000000000000000000000000000000000000000000008152600401610fbe91906117c1565b60405180910390fd5b610fd081611242565b50565b610fdb6111bb565b6000600454905060006040518060e0016040528083815260200189815260200188815260200187151581526020018681526020018581526020018473ffffffffffffffffffffffffffffffffffffffff16815250905080600160008481526020019081526020016000206000820151816000015560208201518160010190816110649190611e21565b50604082015181600201908161107a9190611e21565b5060608201518160030160006101000a81548160ff02191690831515021790555060808201518160040190816110b09190611e21565b5060a0820151816005015560c08201518160060160006101000a81548173ffffffffffffffffffffffffffffffffffffffff021916908373ffffffffffffffffffffffffffffffffffffffff160217905550905050600260008581526020019081526020016000208290806001815401808255809150506001900390600052602060002001600090919091909150556004600081548092919061115290611b8a565b91905055503373ffffffffffffffffffffffffffffffffffffffff167f7962baa190af659db24745d646e7cb7fec846d9c3bfcca7cb486e2c9c2ad1c1383868b8b8b8b426040516111a99796959493929190611f2c565b60405180910390a25050505050505050565b6111c3611306565b73ffffffffffffffffffffffffffffffffffffffff166111e1610951565b73ffffffffffffffffffffffffffffffffffffffff161461124057611204611306565b6040517f118cdaa700000000000000000000000000000000000000000000000000000000815260040161123791906117c1565b60405180910390fd5b565b60008060009054906101000a900473ffffffffffffffffffffffffffffffffffffffff169050816000806101000a81548173ffffffffffffffffffffffffffffffffffffffff021916908373ffffffffffffffffffffffffffffffffffffffff1602179055508173ffffffffffffffffffffffffffffffffffffffff168173ffffffffffffffffffffffffffffffffffffffff167f8be0079c531659141344cd1fd0a4f28419497f9722a3daafe3b4186f6b6457e060405160405180910390a35050565b600033905090565b6040518060e001604052806000815260200160608152602001606081526020016000151581526020016060815260200160008152602001600073ffffffffffffffffffffffffffffffffffffffff1681525090565b6000604051905090565b600080fd5b600080fd5b600073ffffffffffffffffffffffffffffffffffffffff82169050919050565b60006113a282611377565b9050919050565b6113b281611397565b81146113bd57600080fd5b50565b6000813590506113cf816113a9565b92915050565b6000602082840312156113eb576113ea61136d565b5b60006113f9848285016113c0565b91505092915050565b6000819050919050565b61141581611402565b811461142057600080fd5b50565b6000813590506114328161140c565b92915050565b60006020828403121561144e5761144d61136d565b5b600061145c84828501611423565b91505092915050565b61146e81611402565b82525050565b600081519050919050565b600082825260208201905092915050565b60005b838110156114ae578082015181840152602081019050611493565b60008484015250505050565b6000601f19601f8301169050919050565b60006114d682611474565b6114e0818561147f565b93506114f0818560208601611490565b6114f9816114ba565b840191505092915050565b60008115159050919050565b61151981611504565b82525050565b61152881611397565b82525050565b600060e0830160008301516115466000860182611465565b506020830151848203602086015261155e82826114cb565b9150506040830151848203604086015261157882826114cb565b915050606083015161158d6060860182611510565b50608083015184820360808601526115a582826114cb565b91505060a08301516115ba60a0860182611465565b5060c08301516115cd60c086018261151f565b508091505092915050565b600060208201905081810360008301526115f2818461152e565b905092915050565b61160381611504565b82525050565b600060208201905061161e60008301846115fa565b92915050565b600081519050919050565b600082825260208201905092915050565b6000819050602082019050919050565b600060e0830160008301516116686000860182611465565b506020830151848203602086015261168082826114cb565b9150506040830151848203604086015261169a82826114cb565b91505060608301516116af6060860182611510565b50608083015184820360808601526116c782826114cb565b91505060a08301516116dc60a0860182611465565b5060c08301516116ef60c086018261151f565b508091505092915050565b60006117068383611650565b905092915050565b6000602082019050919050565b600061172682611624565b611730818561162f565b93508360208202850161174285611640565b8060005b8581101561177e578484038952815161175f85826116fa565b945061176a8361170e565b925060208a01995050600181019050611746565b50829750879550505050505092915050565b600060208201905081810360008301526117aa818461171b565b905092915050565b6117bb81611397565b82525050565b60006020820190506117d660008301846117b2565b92915050565b600080fd5b600080fd5b7f4e487b7100000000000000000000000000000000000000000000000000000000600052604160045260246000fd5b61181e826114ba565b810181811067ffffffffffffffff8211171561183d5761183c6117e6565b5b80604052505050565b6000611850611363565b905061185c8282611815565b919050565b600067ffffffffffffffff82111561187c5761187b6117e6565b5b611885826114ba565b9050602081019050919050565b82818337600083830152505050565b60006118b46118af84611861565b611846565b9050828152602081018484840111156118d0576118cf6117e1565b5b6118db848285611892565b509392505050565b600082601f8301126118f8576118f76117dc565b5b81356119088482602086016118a1565b91505092915050565b61191a81611504565b811461192557600080fd5b50565b60008135905061193781611911565b92915050565b60008060008060008060c0878903121561195a5761195961136d565b5b600087013567ffffffffffffffff81111561197857611977611372565b5b61198489828a016118e3565b965050602087013567ffffffffffffffff8111156119a5576119a4611372565b5b6119b189828a016118e3565b95505060406119c289828a01611928565b945050606087013567ffffffffffffffff8111156119e3576119e2611372565b5b6119ef89828a016118e3565b9350506080611a0089828a01611423565b92505060a0611a1189828a016113c0565b9150509295509295509295565b611a2781611402565b82525050565b6000604082019050611a4260008301856117b2565b611a4f6020830184611a1e565b9392505050565b7f4e487b7100000000000000000000000000000000000000000000000000000000600052602260045260246000fd5b60006002820490506001821680611a9d57607f821691505b602082108103611ab057611aaf611a56565b5b50919050565b600081519050611ac58161140c565b92915050565b600060208284031215611ae157611ae061136d565b5b6000611aef84828501611ab6565b91505092915050565b7f4e487b7100000000000000000000000000000000000000000000000000000000600052603260045260246000fd5b7f4e487b7100000000000000000000000000000000000000000000000000000000600052601160045260246000fd5b6000611b6182611402565b9150611b6c83611402565b9250828203905081811115611b8457611b83611b27565b5b92915050565b6000611b9582611402565b91507fffffffffffffffffffffffffffffffffffffffffffffffffffffffffffffffff8203611bc757611bc6611b27565b5b600182019050919050565b600082825260208201905092915050565b7f596f75206d757374206265206120746f6b656e20686f6c64657220746f20616360008201527f6365737320706c6f742064657461696c732e0000000000000000000000000000602082015250565b6000611c3f603283611bd2565b9150611c4a82611be3565b604082019050919050565b60006020820190508181036000830152611c6e81611c32565b9050919050565b60008190508160005260206000209050919050565b60006020601f8301049050919050565b600082821b905092915050565b600060088302611cd77fffffffffffffffffffffffffffffffffffffffffffffffffffffffffffffffff82611c9a565b611ce18683611c9a565b95508019841693508086168417925050509392505050565b6000819050919050565b6000611d1e611d19611d1484611402565b611cf9565b611402565b9050919050565b6000819050919050565b611d3883611d03565b611d4c611d4482611d25565b848454611ca7565b825550505050565b600090565b611d61611d54565b611d6c818484611d2f565b505050565b5b81811015611d9057611d85600082611d59565b600181019050611d72565b5050565b601f821115611dd557611da681611c75565b611daf84611c8a565b81016020851015611dbe578190505b611dd2611dca85611c8a565b830182611d71565b50505b505050565b600082821c905092915050565b6000611df860001984600802611dda565b1980831691505092915050565b6000611e118383611de7565b9150826002028217905092915050565b611e2a82611474565b67ffffffffffffffff811115611e4357611e426117e6565b5b611e4d8254611a85565b611e58828285611d94565b600060209050601f831160018114611e8b5760008415611e79578287015190505b611e838582611e05565b865550611eeb565b601f198416611e9986611c75565b60005b82811015611ec157848901518255600182019150602085019450602081019050611e9c565b86831015611ede5784890151611eda601f891682611de7565b8355505b6001600288020188555050505b505050505050565b6000611efe82611474565b611f088185611bd2565b9350611f18818560208601611490565b611f21816114ba565b840191505092915050565b600060e082019050611f41600083018a611a1e565b611f4e6020830189611a1e565b8181036040830152611f608188611ef3565b90508181036060830152611f748187611ef3565b9050611f8360808301866115fa565b81810360a0830152611f958185611ef3565b9050611fa460c0830184611a1e565b9897505050505050505056fea26469706673582212207bfc0de128bc24b9ee47b8f2b3365d3b0d5bb1ae188ac3ceb69dc4ffcf07044e64736f6c634300081b0033",
  "linkReferences": {},
  "deployedLinkReferences": {}
}