{
  "_format": "hh-sol-artifact-1",
  "contractName": "SecureEstate",
  "sourceName": "contracts/SecureEstate.sol",
  "abi": [
    {
      "inputs": [],
      "stateMutability": "nonpayable",
      "type": "constructor"
    },
    {
      "inputs": [
        {
          "internalType": "address",
          "name": "spender",
          "type": "address"
        },
        {
          "internalType": "uint256",
          "name": "allowance",
          "type": "uint256"
        },
        {
          "internalType": "uint256",
          "name": "needed",
          "type": "uint256"
        }
      ],
      "name": "ERC20InsufficientAllowance",
      "type": "error"
    },
    {
      "inputs": [
        {
          "internalType": "address",
          "name": "sender",
          "type": "address"
        },
        {
          "internalType": "uint256",
          "name": "balance",
          "type": "uint256"
        },
        {
          "internalType": "uint256",
          "name": "needed",
          "type": "uint256"
        }
      ],
      "name": "ERC20InsufficientBalance",
      "type": "error"
    },
    {
      "inputs": [
        {
          "internalType": "address",
          "name": "approver",
          "type": "address"
        }
      ],
      "name": "ERC20InvalidApprover",
      "type": "error"
    },
    {
      "inputs": [
        {
          "internalType": "address",
          "name": "receiver",
          "type": "address"
        }
      ],
      "name": "ERC20InvalidReceiver",
      "type": "error"
    },
    {
      "inputs": [
        {
          "internalType": "address",
          "name": "sender",
          "type": "address"
        }
      ],
      "name": "ERC20InvalidSender",
      "type": "error"
    },
    {
      "inputs": [
        {
          "internalType": "address",
          "name": "spender",
          "type": "address"
        }
      ],
      "name": "ERC20InvalidSpender",
      "type": "error"
    },
    {
      "inputs": [
        {
          "internalType": "address",
          "name": "owner",
          "type": "address"
        }
      ],
      "name": "OwnableInvalidOwner",
      "type": "error"
    },
    {
      "inputs": [
        {
          "internalType": "address",
          "name": "account",
          "type": "address"
        }
      ],
      "name": "OwnableUnauthorizedAccount",
      "type": "error"
    },
    {
      "anonymous": false,
      "inputs": [
        {
          "indexed": true,
          "internalType": "address",
          "name": "owner",
          "type": "address"
        },
        {
          "indexed": true,
          "internalType": "address",
          "name": "spender",
          "type": "address"
        },
        {
          "indexed": false,
          "internalType": "uint256",
          "name": "value",
          "type": "uint256"
        }
      ],
      "name": "Approval",
      "type": "event"
    },
    {
      "anonymous": false,
      "inputs": [
        {
          "indexed": true,
          "internalType": "address",
          "name": "previousOwner",
          "type": "address"
        },
        {
          "indexed": true,
          "internalType": "address",
          "name": "newOwner",
          "type": "address"
        }
      ],
      "name": "OwnershipTransferred",
      "type": "event"
    },
    {
      "anonymous": false,
      "inputs": [
        {
          "indexed": true,
          "internalType": "address",
          "name": "user",
          "type": "address"
        },
        {
          "indexed": false,
          "internalType": "uint256",
          "name": "amount",
          "type": "uint256"
        },
        {
          "indexed": false,
          "internalType": "string",
          "name": "action",
          "type": "string"
        },
        {
          "indexed": false,
          "internalType": "uint256",
          "name": "timestamp",
          "type": "uint256"
        }
      ],
      "name": "TokenTransaction",
      "type": "event"
    },
    {
      "anonymous": false,
      "inputs": [
        {
          "indexed": true,
          "internalType": "address",
          "name": "from",
          "type": "address"
        },
        {
          "indexed": true,
          "internalType": "address",
          "name": "to",
          "type": "address"
        },
        {
          "indexed": false,
          "internalType": "uint256",
          "name": "value",
          "type": "uint256"
        }
      ],
      "name": "Transfer",
      "type": "event"
    },
    {
      "inputs": [
        {
          "internalType": "address",
          "name": "owner",
          "type": "address"
        },
        {
          "internalType": "address",
          "name": "spender",
          "type": "address"
        }
      ],
      "name": "allowance",
      "outputs": [
        {
          "internalType": "uint256",
          "name": "",
          "type": "uint256"
        }
      ],
      "stateMutability": "view",
      "type": "function"
    },
    {
      "inputs": [
        {
          "internalType": "address",
          "name": "spender",
          "type": "address"
        },
        {
          "internalType": "uint256",
          "name": "value",
          "type": "uint256"
        }
      ],
      "name": "approve",
      "outputs": [
        {
          "internalType": "bool",
          "name": "",
          "type": "bool"
        }
      ],
      "stateMutability": "nonpayable",
      "type": "function"
    },
    {
      "inputs": [
        {
          "internalType": "address",
          "name": "account",
          "type": "address"
        }
      ],
      "name": "balanceOf",
      "outputs": [
        {
          "internalType": "uint256",
          "name": "",
          "type": "uint256"
        }
      ],
      "stateMutability": "view",
      "type": "function"
    },
    {
      "inputs": [
        {
          "internalType": "uint256",
          "name": "value",
          "type": "uint256"
        }
      ],
      "name": "burn",
      "outputs": [],
      "stateMutability": "nonpayable",
      "type": "function"
    },
    {
      "inputs": [
        {
          "internalType": "address",
          "name": "account",
          "type": "address"
        },
        {
          "internalType": "uint256",
          "name": "value",
          "type": "uint256"
        }
      ],
      "name": "burnFrom",
      "outputs": [],
      "stateMutability": "nonpayable",
      "type": "function"
    },
    {
      "inputs": [],
      "name": "decimals",
      "outputs": [
        {
          "internalType": "uint8",
          "name": "",
          "type": "uint8"
        }
      ],
      "stateMutability": "view",
      "type": "function"
    },
    {
      "inputs": [
        {
          "internalType": "address",
          "name": "wallet",
          "type": "address"
        }
      ],
      "name": "hasTokens",
      "outputs": [
        {
          "internalType": "bool",
          "name": "",
          "type": "bool"
        }
      ],
      "stateMutability": "view",
      "type": "function"
    },
    {
      "inputs": [
        {
          "internalType": "address",
          "name": "to",
          "type": "address"
        },
        {
          "internalType": "uint256",
          "name": "amount",
          "type": "uint256"
        }
      ],
      "name": "mint",
      "outputs": [],
      "stateMutability": "nonpayable",
      "type": "function"
    },
    {
      "inputs": [],
      "name": "name",
      "outputs": [
        {
          "internalType": "string",
          "name": "",
          "type": "string"
        }
      ],
      "stateMutability": "view",
      "type": "function"
    },
    {
      "inputs": [],
      "name": "owner",
      "outputs": [
        {
          "internalType": "address",
          "name": "",
          "type": "address"
        }
      ],
      "stateMutability": "view",
      "type": "function"
    },
    {
      "inputs": [],
      "name": "renounceOwnership",
      "outputs": [],
      "stateMutability": "nonpayable",
      "type": "function"
    },
    {
      "inputs": [],
      "name": "symbol",
      "outputs": [
        {
          "internalType": "string",
          "name": "",
          "type": "string"
        }
      ],
      "stateMutability": "view",
      "type": "function"
    },
    {
      "inputs": [],
      "name": "totalSupply",
      "outputs": [
        {
          "internalType": "uint256",
          "name": "",
          "type": "uint256"
        }
      ],
      "stateMutability": "view",
      "type": "function"
    },
    {
      "inputs": [
        {
          "internalType": "address",
          "name": "to",
          "type": "address"
        },
        {
          "internalType": "uint256",
          "name": "value",
          "type": "uint256"
        }
      ],
      "name": "transfer",
      "outputs": [
        {
          "internalType": "bool",
          "name": "",
          "type": "bool"
        }
      ],
      "stateMutability": "nonpayable",
      "type": "function"
    },
    {
      "inputs": [
        {
          "internalType": "address",
          "name": "from",
          "type": "address"
        },
        {
          "internalType": "address",
          "name": "to",
          "type": "address"
        },
        {
          "internalType": "uint256",
          "name": "value",
          "type": "uint256"
        }
      ],
      "name": "transferFrom",
      "outputs": [
        {
          "internalType": "bool",
          "name": "",
          "type": "bool"
        }
      ],
      "stateMutability": "nonpayable",
      "type": "function"
    },
    {
      "inputs": [
        {
          "internalType": "address",
          "name": "newOwner",
          "type": "address"
        }
      ],
      "name": "transferOwnership",
      "outputs": [],
      "stateMutability": "nonpayable",
      "type": "function"
    },
    {
      "inputs": [
        {
          "internalType": "address",
          "name": "recipient",
          "type": "address"
        },
        {
          "internalType": "uint256",
          "name": "amount",
          "type": "uint256"
        }
      ],
      "name": "transferTokens",
      "outputs": [],
      "stateMutability": "nonpayable",
      "type": "function"
    }
  ],
  "bytecode": "0x608060405234801561001057600080fd5b50336040518060400160405280600c81526020017f53656375726545737461746500000000000000000000000000000000000000008152506040518060400160405280600381526020017f5345480000000000000000000000000000000000000000000000000000000000815250816003908161008d919061043d565b50806004908161009d919061043d565b505050600073ffffffffffffffffffffffffffffffffffffffff168173ffffffffffffffffffffffffffffffffffffffff16036101125760006040517f1e4fbdf70000000000000000000000000000000000000000000000000000000081526004016101099190610550565b60405180910390fd5b6101218161012760201b60201c565b5061056b565b6000600560009054906101000a900473ffffffffffffffffffffffffffffffffffffffff16905081600560006101000a81548173ffffffffffffffffffffffffffffffffffffffff021916908373ffffffffffffffffffffffffffffffffffffffff1602179055508173ffffffffffffffffffffffffffffffffffffffff168173ffffffffffffffffffffffffffffffffffffffff167f8be0079c531659141344cd1fd0a4f28419497f9722a3daafe3b4186f6b6457e060405160405180910390a35050565b600081519050919050565b7f4e487b7100000000000000000000000000000000000000000000000000000000600052604160045260246000fd5b7f4e487b7100000000000000000000000000000000000000000000000000000000600052602260045260246000fd5b6000600282049050600182168061026e57607f821691505b60208210810361028157610280610227565b5b50919050565b60008190508160005260206000209050919050565b60006020601f8301049050919050565b600082821b905092915050565b6000600883026102e97fffffffffffffffffffffffffffffffffffffffffffffffffffffffffffffffff826102ac565b6102f386836102ac565b95508019841693508086168417925050509392505050565b6000819050919050565b6000819050919050565b600061033a6103356103308461030b565b610315565b61030b565b9050919050565b6000819050919050565b6103548361031f565b61036861036082610341565b8484546102b9565b825550505050565b600090565b61037d610370565b61038881848461034b565b505050565b5b818110156103ac576103a1600082610375565b60018101905061038e565b5050565b601f8211156103f1576103c281610287565b6103cb8461029c565b810160208510156103da578190505b6103ee6103e68561029c565b83018261038d565b50505b505050565b600082821c905092915050565b6000610414600019846008026103f6565b1980831691505092915050565b600061042d8383610403565b9150826002028217905092915050565b610446826101ed565b67ffffffffffffffff81111561045f5761045e6101f8565b5b6104698254610256565b6104748282856103b0565b600060209050601f8311600181146104a75760008415610495578287015190505b61049f8582610421565b865550610507565b601f1984166104b586610287565b60005b828110156104dd578489015182556001820191506020850194506020810190506104b8565b868310156104fa57848901516104f6601f891682610403565b8355505b6001600288020188555050505b505050505050565b600073ffffffffffffffffffffffffffffffffffffffff82169050919050565b600061053a8261050f565b9050919050565b61054a8161052f565b82525050565b60006020820190506105656000830184610541565b92915050565b6115108061057a6000396000f3fe608060405234801561001057600080fd5b506004361061010b5760003560e01c806370a08231116100a257806395d89b411161007157806395d89b41146102a6578063a9059cbb146102c4578063bec3fa17146102f4578063dd62ed3e14610310578063f2fde38b146103405761010b565b806370a0823114610232578063715018a61461026257806379cc67901461026c5780638da5cb5b146102885761010b565b8063313ce567116100de578063313ce567146101ac5780633cefc1e0146101ca57806340c10f19146101fa57806342966c68146102165761010b565b806306fdde0314610110578063095ea7b31461012e57806318160ddd1461015e57806323b872dd1461017c575b600080fd5b61011861035c565b6040516101259190611027565b60405180910390f35b610148600480360381019061014391906110e2565b6103ee565b604051610155919061113d565b60405180910390f35b610166610411565b6040516101739190611167565b60405180910390f35b61019660048036038101906101919190611182565b61041b565b6040516101a3919061113d565b60405180910390f35b6101b461044a565b6040516101c191906111f1565b60405180910390f35b6101e460048036038101906101df919061120c565b610453565b6040516101f1919061113d565b60405180910390f35b610214600480360381019061020f91906110e2565b610467565b005b610230600480360381019061022b9190611239565b6104cd565b005b61024c6004803603810190610247919061120c565b6104e1565b6040516102599190611167565b60405180910390f35b61026a610529565b005b610286600480360381019061028191906110e2565b61053d565b005b61029061055d565b60405161029d9190611275565b60405180910390f35b6102ae610587565b6040516102bb9190611027565b60405180910390f35b6102de60048036038101906102d991906110e2565b610619565b6040516102eb919061113d565b60405180910390f35b61030e600480360381019061030991906110e2565b61063c565b005b61032a60048036038101906103259190611290565b61069b565b6040516103379190611167565b60405180910390f35b61035a6004803603810190610355919061120c565b610722565b005b60606003805461036b906112ff565b80601f0160208091040260200160405190810160405280929190818152602001828054610397906112ff565b80156103e45780601f106103b9576101008083540402835291602001916103e4565b820191906000526020600020905b8154815290600101906020018083116103c757829003601f168201915b5050505050905090565b6000806103f96107a8565b90506104068185856107b0565b600191505092915050565b6000600254905090565b6000806104266107a8565b90506104338582856107c2565b61043e858585610856565b60019150509392505050565b60006012905090565b60008061045f836104e1565b119050919050565b61046f61094a565b61047982826109d1565b8173ffffffffffffffffffffffffffffffffffffffff167f1bfa9fa1f78e5cf2eb577462739144029d7357401d777f3b4939cb9a0048bff482426040516104c192919061137c565b60405180910390a25050565b6104de6104d86107a8565b82610a53565b50565b60008060008373ffffffffffffffffffffffffffffffffffffffff1673ffffffffffffffffffffffffffffffffffffffff168152602001908152602001600020549050919050565b61053161094a565b61053b6000610ad5565b565b61054f826105496107a8565b836107c2565b6105598282610a53565b5050565b6000600560009054906101000a900473ffffffffffffffffffffffffffffffffffffffff16905090565b606060048054610596906112ff565b80601f01602080910402602001604051908101604052809291908181526020018280546105c2906112ff565b801561060f5780601f106105e45761010080835404028352916020019161060f565b820191906000526020600020905b8154815290600101906020018083116105f257829003601f168201915b5050505050905090565b6000806106246107a8565b9050610631818585610856565b600191505092915050565b6106468282610619565b503373ffffffffffffffffffffffffffffffffffffffff167f1bfa9fa1f78e5cf2eb577462739144029d7357401d777f3b4939cb9a0048bff4824260405161068f929190611404565b60405180910390a25050565b6000600160008473ffffffffffffffffffffffffffffffffffffffff1673ffffffffffffffffffffffffffffffffffffffff16815260200190815260200160002060008373ffffffffffffffffffffffffffffffffffffffff1673ffffffffffffffffffffffffffffffffffffffff16815260200190815260200160002054905092915050565b61072a61094a565b600073ffffffffffffffffffffffffffffffffffffffff168173ffffffffffffffffffffffffffffffffffffffff160361079c5760006040517f1e4fbdf70000000000000000000000000000000000000000000000000000000081526004016107939190611275565b60405180910390fd5b6107a581610ad5565b50565b600033905090565b6107bd8383836001610b9b565b505050565b60006107ce848461069b565b90507fffffffffffffffffffffffffffffffffffffffffffffffffffffffffffffffff81146108505781811015610840578281836040517ffb8f41b200000000000000000000000000000000000000000000000000000000815260040161083793929190611440565b60405180910390fd5b61084f84848484036000610b9b565b5b50505050565b600073ffffffffffffffffffffffffffffffffffffffff168373ffffffffffffffffffffffffffffffffffffffff16036108c85760006040517f96c6fd1e0000000000000000000000000000000000000000000000000000000081526004016108bf9190611275565b60405180910390fd5b600073ffffffffffffffffffffffffffffffffffffffff168273ffffffffffffffffffffffffffffffffffffffff160361093a5760006040517fec442f050000000000000000000000000000000000000000000000000000000081526004016109319190611275565b60405180910390fd5b610945838383610d72565b505050565b6109526107a8565b73ffffffffffffffffffffffffffffffffffffffff1661097061055d565b73ffffffffffffffffffffffffffffffffffffffff16146109cf576109936107a8565b6040517f118cdaa70000000000000000000000000000000000000000000000000000000081526004016109c69190611275565b60405180910390fd5b565b600073ffffffffffffffffffffffffffffffffffffffff168273ffffffffffffffffffffffffffffffffffffffff1603610a435760006040517fec442f05000000000000000000000000000000000000000000000000000000008152600401610a3a9190611275565b60405180910390fd5b610a4f60008383610d72565b5050565b600073ffffffffffffffffffffffffffffffffffffffff168273ffffffffffffffffffffffffffffffffffffffff1603610ac55760006040517f96c6fd1e000000000000000000000000000000000000000000000000000000008152600401610abc9190611275565b60405180910390fd5b610ad182600083610d72565b5050565b6000600560009054906101000a900473ffffffffffffffffffffffffffffffffffffffff16905081600560006101000a81548173ffffffffffffffffffffffffffffffffffffffff021916908373ffffffffffffffffffffffffffffffffffffffff1602179055508173ffffffffffffffffffffffffffffffffffffffff168173ffffffffffffffffffffffffffffffffffffffff167f8be0079c531659141344cd1fd0a4f28419497f9722a3daafe3b4186f6b6457e060405160405180910390a35050565b600073ffffffffffffffffffffffffffffffffffffffff168473ffffffffffffffffffffffffffffffffffffffff1603610c0d5760006040517fe602df05000000000000000000000000000000000000000000000000000000008152600401610c049190611275565b60405180910390fd5b600073ffffffffffffffffffffffffffffffffffffffff168373ffffffffffffffffffffffffffffffffffffffff1603610c7f5760006040517f94280d62000000000000000000000000000000000000000000000000000000008152600401610c769190611275565b60405180910390fd5b81600160008673ffffffffffffffffffffffffffffffffffffffff1673ffffffffffffffffffffffffffffffffffffffff16815260200190815260200160002060008573ffffffffffffffffffffffffffffffffffffffff1673ffffffffffffffffffffffffffffffffffffffff168152602001908152602001600020819055508015610d6c578273ffffffffffffffffffffffffffffffffffffffff168473ffffffffffffffffffffffffffffffffffffffff167f8c5be1e5ebec7d5bd14f71427d1e84f3dd0314c0f7b2291e5b200ac8c7c3b92584604051610d639190611167565b60405180910390a35b50505050565b600073ffffffffffffffffffffffffffffffffffffffff168373ffffffffffffffffffffffffffffffffffffffff1603610dc4578060026000828254610db891906114a6565b92505081905550610e97565b60008060008573ffffffffffffffffffffffffffffffffffffffff1673ffffffffffffffffffffffffffffffffffffffff16815260200190815260200160002054905081811015610e50578381836040517fe450d38c000000000000000000000000000000000000000000000000000000008152600401610e4793929190611440565b60405180910390fd5b8181036000808673ffffffffffffffffffffffffffffffffffffffff1673ffffffffffffffffffffffffffffffffffffffff16815260200190815260200160002081905550505b600073ffffffffffffffffffffffffffffffffffffffff168273ffffffffffffffffffffffffffffffffffffffff1603610ee05780600260008282540392505081905550610f2d565b806000808473ffffffffffffffffffffffffffffffffffffffff1673ffffffffffffffffffffffffffffffffffffffff168152602001908152602001600020600082825401925050819055505b8173ffffffffffffffffffffffffffffffffffffffff168373ffffffffffffffffffffffffffffffffffffffff167fddf252ad1be2c89b69c2b068fc378daa952ba7f163c4a11628f55a4df523b3ef83604051610f8a9190611167565b60405180910390a3505050565b600081519050919050565b600082825260208201905092915050565b60005b83811015610fd1578082015181840152602081019050610fb6565b60008484015250505050565b6000601f19601f8301169050919050565b6000610ff982610f97565b6110038185610fa2565b9350611013818560208601610fb3565b61101c81610fdd565b840191505092915050565b600060208201905081810360008301526110418184610fee565b905092915050565b600080fd5b600073ffffffffffffffffffffffffffffffffffffffff82169050919050565b60006110798261104e565b9050919050565b6110898161106e565b811461109457600080fd5b50565b6000813590506110a681611080565b92915050565b6000819050919050565b6110bf816110ac565b81146110ca57600080fd5b50565b6000813590506110dc816110b6565b92915050565b600080604083850312156110f9576110f8611049565b5b600061110785828601611097565b9250506020611118858286016110cd565b9150509250929050565b60008115159050919050565b61113781611122565b82525050565b6000602082019050611152600083018461112e565b92915050565b611161816110ac565b82525050565b600060208201905061117c6000830184611158565b92915050565b60008060006060848603121561119b5761119a611049565b5b60006111a986828701611097565b93505060206111ba86828701611097565b92505060406111cb868287016110cd565b9150509250925092565b600060ff82169050919050565b6111eb816111d5565b82525050565b600060208201905061120660008301846111e2565b92915050565b60006020828403121561122257611221611049565b5b600061123084828501611097565b91505092915050565b60006020828403121561124f5761124e611049565b5b600061125d848285016110cd565b91505092915050565b61126f8161106e565b82525050565b600060208201905061128a6000830184611266565b92915050565b600080604083850312156112a7576112a6611049565b5b60006112b585828601611097565b92505060206112c685828601611097565b9150509250929050565b7f4e487b7100000000000000000000000000000000000000000000000000000000600052602260045260246000fd5b6000600282049050600182168061131757607f821691505b60208210810361132a576113296112d0565b5b50919050565b7f4d696e7400000000000000000000000000000000000000000000000000000000600082015250565b6000611366600483610fa2565b915061137182611330565b602082019050919050565b60006060820190506113916000830185611158565b81810360208301526113a281611359565b90506113b16040830184611158565b9392505050565b7f5472616e73666572000000000000000000000000000000000000000000000000600082015250565b60006113ee600883610fa2565b91506113f9826113b8565b602082019050919050565b60006060820190506114196000830185611158565b818103602083015261142a816113e1565b90506114396040830184611158565b9392505050565b60006060820190506114556000830186611266565b6114626020830185611158565b61146f6040830184611158565b949350505050565b7f4e487b7100000000000000000000000000000000000000000000000000000000600052601160045260246000fd5b60006114b1826110ac565b91506114bc836110ac565b92508282019050808211156114d4576114d3611477565b5b9291505056fea2646970667358221220bf0c2ac18f73f74a7b6f591f858b96201102b4aff62ae3c092e73f86f78d736364736f6c634300081b0033",
  "linkReferences": {},
  "deployedLinkReferences": {}
}